{
  "_format": "hh-sol-artifact-1",
  "contractName": "BEP20",
  "sourceName": "contracts/BEP20.sol",
  "abi": [
    {
      "inputs": [
        {
          "internalType": "string",
          "name": "name_",
          "type": "string"
        },
        {
          "internalType": "string",
          "name": "symbol_",
          "type": "string"
        },
        {
          "internalType": "uint8",
          "name": "decimals_",
          "type": "uint8"
        }
      ],
      "stateMutability": "nonpayable",
      "type": "constructor"
    },
    {
      "anonymous": false,
      "inputs": [
        {
          "indexed": true,
          "internalType": "address",
          "name": "owner",
          "type": "address"
        },
        {
          "indexed": true,
          "internalType": "address",
          "name": "spender",
          "type": "address"
        },
        {
          "indexed": false,
          "internalType": "uint256",
          "name": "value",
          "type": "uint256"
        }
      ],
      "name": "Approval",
      "type": "event"
    },
    {
      "anonymous": false,
      "inputs": [
        {
          "indexed": true,
          "internalType": "address",
          "name": "previousOwner",
          "type": "address"
        },
        {
          "indexed": true,
          "internalType": "address",
          "name": "newOwner",
          "type": "address"
        }
      ],
      "name": "OwnershipTransferred",
      "type": "event"
    },
    {
      "anonymous": false,
      "inputs": [
        {
          "indexed": true,
          "internalType": "address",
          "name": "from",
          "type": "address"
        },
        {
          "indexed": true,
          "internalType": "address",
          "name": "to",
          "type": "address"
        },
        {
          "indexed": false,
          "internalType": "uint256",
          "name": "value",
          "type": "uint256"
        }
      ],
      "name": "Transfer",
      "type": "event"
    },
    {
      "inputs": [
        {
          "internalType": "address",
          "name": "_user",
          "type": "address"
        }
      ],
      "name": "addBlacklist",
      "outputs": [],
      "stateMutability": "nonpayable",
      "type": "function"
    },
    {
      "inputs": [
        {
          "internalType": "address",
          "name": "owner",
          "type": "address"
        },
        {
          "internalType": "address",
          "name": "spender",
          "type": "address"
        }
      ],
      "name": "allowance",
      "outputs": [
        {
          "internalType": "uint256",
          "name": "",
          "type": "uint256"
        }
      ],
      "stateMutability": "view",
      "type": "function"
    },
    {
      "inputs": [
        {
          "internalType": "address",
          "name": "spender",
          "type": "address"
        },
        {
          "internalType": "uint256",
          "name": "amount",
          "type": "uint256"
        }
      ],
      "name": "approve",
      "outputs": [
        {
          "internalType": "bool",
          "name": "",
          "type": "bool"
        }
      ],
      "stateMutability": "nonpayable",
      "type": "function"
    },
    {
      "inputs": [
        {
          "internalType": "address",
          "name": "account",
          "type": "address"
        }
      ],
      "name": "balanceOf",
      "outputs": [
        {
          "internalType": "uint256",
          "name": "",
          "type": "uint256"
        }
      ],
      "stateMutability": "view",
      "type": "function"
    },
    {
      "inputs": [],
      "name": "decimals",
      "outputs": [
        {
          "internalType": "uint8",
          "name": "",
          "type": "uint8"
        }
      ],
      "stateMutability": "view",
      "type": "function"
    },
    {
      "inputs": [
        {
          "internalType": "address",
          "name": "spender",
          "type": "address"
        },
        {
          "internalType": "uint256",
          "name": "subtractedValue",
          "type": "uint256"
        }
      ],
      "name": "decreaseAllowance",
      "outputs": [
        {
          "internalType": "bool",
          "name": "",
          "type": "bool"
        }
      ],
      "stateMutability": "nonpayable",
      "type": "function"
    },
    {
      "inputs": [
        {
          "internalType": "address",
          "name": "spender",
          "type": "address"
        },
        {
          "internalType": "uint256",
          "name": "addedValue",
          "type": "uint256"
        }
      ],
      "name": "increaseAllowance",
      "outputs": [
        {
          "internalType": "bool",
          "name": "",
          "type": "bool"
        }
      ],
      "stateMutability": "nonpayable",
      "type": "function"
    },
    {
      "inputs": [
        {
          "internalType": "address",
          "name": "",
          "type": "address"
        }
      ],
      "name": "isBlacklisted",
      "outputs": [
        {
          "internalType": "bool",
          "name": "",
          "type": "bool"
        }
      ],
      "stateMutability": "view",
      "type": "function"
    },
    {
      "inputs": [],
      "name": "name",
      "outputs": [
        {
          "internalType": "string",
          "name": "",
          "type": "string"
        }
      ],
      "stateMutability": "view",
      "type": "function"
    },
    {
      "inputs": [],
      "name": "owner",
      "outputs": [
        {
          "internalType": "address",
          "name": "",
          "type": "address"
        }
      ],
      "stateMutability": "view",
      "type": "function"
    },
    {
      "inputs": [
        {
          "internalType": "address",
          "name": "_user",
          "type": "address"
        }
      ],
      "name": "removeFromBlacklist",
      "outputs": [],
      "stateMutability": "nonpayable",
      "type": "function"
    },
    {
      "inputs": [],
      "name": "renounceOwnership",
      "outputs": [],
      "stateMutability": "nonpayable",
      "type": "function"
    },
    {
      "inputs": [],
      "name": "symbol",
      "outputs": [
        {
          "internalType": "string",
          "name": "",
          "type": "string"
        }
      ],
      "stateMutability": "view",
      "type": "function"
    },
    {
      "inputs": [],
      "name": "totalSupply",
      "outputs": [
        {
          "internalType": "uint256",
          "name": "",
          "type": "uint256"
        }
      ],
      "stateMutability": "view",
      "type": "function"
    },
    {
      "inputs": [
        {
          "internalType": "address",
          "name": "to",
          "type": "address"
        },
        {
          "internalType": "uint256",
          "name": "amount",
          "type": "uint256"
        }
      ],
      "name": "transfer",
      "outputs": [
        {
          "internalType": "bool",
          "name": "",
          "type": "bool"
        }
      ],
      "stateMutability": "nonpayable",
      "type": "function"
    },
    {
      "inputs": [
        {
          "internalType": "address",
          "name": "from",
          "type": "address"
        },
        {
          "internalType": "address",
          "name": "to",
          "type": "address"
        },
        {
          "internalType": "uint256",
          "name": "amount",
          "type": "uint256"
        }
      ],
      "name": "transferFrom",
      "outputs": [
        {
          "internalType": "bool",
          "name": "",
          "type": "bool"
        }
      ],
      "stateMutability": "nonpayable",
      "type": "function"
    },
    {
      "inputs": [
        {
          "internalType": "address",
          "name": "newOwner",
          "type": "address"
        }
      ],
      "name": "transferOwnership",
      "outputs": [],
      "stateMutability": "nonpayable",
      "type": "function"
    }
  ],
  "bytecode": "0x60806040523480156200001157600080fd5b50604051620022593803806200225983398181016040528101906200003791906200033c565b620000576200004b6200009f60201b60201c565b620000a760201b60201c565b826005908162000068919062000621565b5081600690816200007a919062000621565b5080600760006101000a81548160ff021916908360ff16021790555050505062000708565b600033905090565b60008060009054906101000a900473ffffffffffffffffffffffffffffffffffffffff169050816000806101000a81548173ffffffffffffffffffffffffffffffffffffffff021916908373ffffffffffffffffffffffffffffffffffffffff1602179055508173ffffffffffffffffffffffffffffffffffffffff168173ffffffffffffffffffffffffffffffffffffffff167f8be0079c531659141344cd1fd0a4f28419497f9722a3daafe3b4186f6b6457e060405160405180910390a35050565b6000604051905090565b600080fd5b600080fd5b600080fd5b600080fd5b6000601f19601f8301169050919050565b7f4e487b7100000000000000000000000000000000000000000000000000000000600052604160045260246000fd5b620001d48262000189565b810181811067ffffffffffffffff82111715620001f657620001f56200019a565b5b80604052505050565b60006200020b6200016b565b9050620002198282620001c9565b919050565b600067ffffffffffffffff8211156200023c576200023b6200019a565b5b620002478262000189565b9050602081019050919050565b60005b838110156200027457808201518184015260208101905062000257565b60008484015250505050565b60006200029762000291846200021e565b620001ff565b905082815260208101848484011115620002b657620002b562000184565b5b620002c384828562000254565b509392505050565b600082601f830112620002e357620002e26200017f565b5b8151620002f584826020860162000280565b91505092915050565b600060ff82169050919050565b6200031681620002fe565b81146200032257600080fd5b50565b60008151905062000336816200030b565b92915050565b60008060006060848603121562000358576200035762000175565b5b600084015167ffffffffffffffff8111156200037957620003786200017a565b5b6200038786828701620002cb565b935050602084015167ffffffffffffffff811115620003ab57620003aa6200017a565b5b620003b986828701620002cb565b9250506040620003cc8682870162000325565b9150509250925092565b600081519050919050565b7f4e487b7100000000000000000000000000000000000000000000000000000000600052602260045260246000fd5b600060028204905060018216806200042957607f821691505b6020821081036200043f576200043e620003e1565b5b50919050565b60008190508160005260206000209050919050565b60006020601f8301049050919050565b600082821b905092915050565b600060088302620004a97fffffffffffffffffffffffffffffffffffffffffffffffffffffffffffffffff826200046a565b620004b586836200046a565b95508019841693508086168417925050509392505050565b6000819050919050565b6000819050919050565b600062000502620004fc620004f684620004cd565b620004d7565b620004cd565b9050919050565b6000819050919050565b6200051e83620004e1565b620005366200052d8262000509565b84845462000477565b825550505050565b600090565b6200054d6200053e565b6200055a81848462000513565b505050565b5b8181101562000582576200057660008262000543565b60018101905062000560565b5050565b601f821115620005d1576200059b8162000445565b620005a6846200045a565b81016020851015620005b6578190505b620005ce620005c5856200045a565b8301826200055f565b50505b505050565b600082821c905092915050565b6000620005f660001984600802620005d6565b1980831691505092915050565b6000620006118383620005e3565b9150826002028217905092915050565b6200062c82620003d6565b67ffffffffffffffff8111156200064857620006476200019a565b5b62000654825462000410565b6200066182828562000586565b600060209050601f83116001811462000699576000841562000684578287015190505b62000690858262000603565b86555062000700565b601f198416620006a98662000445565b60005b82811015620006d357848901518255600182019150602085019450602081019050620006ac565b86831015620006f35784890151620006ef601f891682620005e3565b8355505b6001600288020188555050505b505050505050565b611b4180620007186000396000f3fe608060405234801561001057600080fd5b506004361061010b5760003560e01c8063715018a6116100a2578063a457c2d711610071578063a457c2d7146102a8578063a9059cbb146102d8578063dd62ed3e14610308578063f2fde38b14610338578063fe575a87146103545761010b565b8063715018a6146102465780638da5cb5b1461025057806395d89b411461026e5780639cfe42da1461028c5761010b565b8063313ce567116100de578063313ce567146101ac57806339509351146101ca578063537df3b6146101fa57806370a08231146102165761010b565b806306fdde0314610110578063095ea7b31461012e57806318160ddd1461015e57806323b872dd1461017c575b600080fd5b610118610384565b6040516101259190611146565b60405180910390f35b61014860048036038101906101439190611201565b610416565b604051610155919061125c565b60405180910390f35b610166610439565b6040516101739190611286565b60405180910390f35b610196600480360381019061019191906112a1565b610443565b6040516101a3919061125c565b60405180910390f35b6101b4610472565b6040516101c19190611310565b60405180910390f35b6101e460048036038101906101df9190611201565b610489565b6040516101f1919061125c565b60405180910390f35b610214600480360381019061020f919061132b565b6104c0565b005b610230600480360381019061022b919061132b565b6105af565b60405161023d9190611286565b60405180910390f35b61024e6105f8565b005b61025861060c565b6040516102659190611367565b60405180910390f35b610276610635565b6040516102839190611146565b60405180910390f35b6102a660048036038101906102a1919061132b565b6106c7565b005b6102c260048036038101906102bd9190611201565b6107b6565b6040516102cf919061125c565b60405180910390f35b6102f260048036038101906102ed9190611201565b61082d565b6040516102ff919061125c565b60405180910390f35b610322600480360381019061031d9190611382565b610850565b60405161032f9190611286565b60405180910390f35b610352600480360381019061034d919061132b565b6108d7565b005b61036e6004803603810190610369919061132b565b61095a565b60405161037b919061125c565b60405180910390f35b606060058054610393906113f1565b80601f01602080910402602001604051908101604052809291908181526020018280546103bf906113f1565b801561040c5780601f106103e15761010080835404028352916020019161040c565b820191906000526020600020905b8154815290600101906020018083116103ef57829003601f168201915b5050505050905090565b60008061042161097a565b905061042e818585610982565b600191505092915050565b6000600454905090565b60008061044e61097a565b905061045b858285610b4b565b610466858585610bd7565b60019150509392505050565b6000600760009054906101000a900460ff16905090565b60008061049461097a565b90506104b58185856104a68589610850565b6104b09190611451565b610982565b600191505092915050565b6104c8610f6a565b600160008273ffffffffffffffffffffffffffffffffffffffff1673ffffffffffffffffffffffffffffffffffffffff16815260200190815260200160002060009054906101000a900460ff16610554576040517f08c379a000000000000000000000000000000000000000000000000000000000815260040161054b906114d1565b60405180910390fd5b6000600160008373ffffffffffffffffffffffffffffffffffffffff1673ffffffffffffffffffffffffffffffffffffffff16815260200190815260200160002060006101000a81548160ff02191690831515021790555050565b6000600260008373ffffffffffffffffffffffffffffffffffffffff1673ffffffffffffffffffffffffffffffffffffffff168152602001908152602001600020549050919050565b610600610f6a565b61060a6000610fe8565b565b60008060009054906101000a900473ffffffffffffffffffffffffffffffffffffffff16905090565b606060068054610644906113f1565b80601f0160208091040260200160405190810160405280929190818152602001828054610670906113f1565b80156106bd5780601f10610692576101008083540402835291602001916106bd565b820191906000526020600020905b8154815290600101906020018083116106a057829003601f168201915b5050505050905090565b6106cf610f6a565b600160008273ffffffffffffffffffffffffffffffffffffffff1673ffffffffffffffffffffffffffffffffffffffff16815260200190815260200160002060009054906101000a900460ff161561075c576040517f08c379a00000000000000000000000000000000000000000000000000000000081526004016107539061153d565b60405180910390fd5b60018060008373ffffffffffffffffffffffffffffffffffffffff1673ffffffffffffffffffffffffffffffffffffffff16815260200190815260200160002060006101000a81548160ff02191690831515021790555050565b6000806107c161097a565b905060006107cf8286610850565b905083811015610814576040517f08c379a000000000000000000000000000000000000000000000000000000000815260040161080b906115cf565b60405180910390fd5b6108218286868403610982565b60019250505092915050565b60008061083861097a565b9050610845818585610bd7565b600191505092915050565b6000600360008473ffffffffffffffffffffffffffffffffffffffff1673ffffffffffffffffffffffffffffffffffffffff16815260200190815260200160002060008373ffffffffffffffffffffffffffffffffffffffff1673ffffffffffffffffffffffffffffffffffffffff16815260200190815260200160002054905092915050565b6108df610f6a565b600073ffffffffffffffffffffffffffffffffffffffff168173ffffffffffffffffffffffffffffffffffffffff160361094e576040517f08c379a000000000000000000000000000000000000000000000000000000000815260040161094590611661565b60405180910390fd5b61095781610fe8565b50565b60016020528060005260406000206000915054906101000a900460ff1681565b600033905090565b600073ffffffffffffffffffffffffffffffffffffffff168373ffffffffffffffffffffffffffffffffffffffff16036109f1576040517f08c379a00000000000000000000000000000000000000000000000000000000081526004016109e8906116f3565b60405180910390fd5b600073ffffffffffffffffffffffffffffffffffffffff168273ffffffffffffffffffffffffffffffffffffffff1603610a60576040517f08c379a0000000000000000000000000000000000000000000000000000000008152600401610a5790611785565b60405180910390fd5b80600360008573ffffffffffffffffffffffffffffffffffffffff1673ffffffffffffffffffffffffffffffffffffffff16815260200190815260200160002060008473ffffffffffffffffffffffffffffffffffffffff1673ffffffffffffffffffffffffffffffffffffffff168152602001908152602001600020819055508173ffffffffffffffffffffffffffffffffffffffff168373ffffffffffffffffffffffffffffffffffffffff167f8c5be1e5ebec7d5bd14f71427d1e84f3dd0314c0f7b2291e5b200ac8c7c3b92583604051610b3e9190611286565b60405180910390a3505050565b6000610b578484610850565b90507fffffffffffffffffffffffffffffffffffffffffffffffffffffffffffffffff8114610bd15781811015610bc3576040517f08c379a0000000000000000000000000000000000000000000000000000000008152600401610bba906117f1565b60405180910390fd5b610bd08484848403610982565b5b50505050565b600073ffffffffffffffffffffffffffffffffffffffff168373ffffffffffffffffffffffffffffffffffffffff1603610c46576040517f08c379a0000000000000000000000000000000000000000000000000000000008152600401610c3d90611883565b60405180910390fd5b600073ffffffffffffffffffffffffffffffffffffffff168273ffffffffffffffffffffffffffffffffffffffff1603610cb5576040517f08c379a0000000000000000000000000000000000000000000000000000000008152600401610cac90611915565b60405180910390fd5b600160008473ffffffffffffffffffffffffffffffffffffffff1673ffffffffffffffffffffffffffffffffffffffff16815260200190815260200160002060009054906101000a900460ff1615610d42576040517f08c379a0000000000000000000000000000000000000000000000000000000008152600401610d3990611981565b60405180910390fd5b600160008373ffffffffffffffffffffffffffffffffffffffff1673ffffffffffffffffffffffffffffffffffffffff16815260200190815260200160002060009054906101000a900460ff1615610dcf576040517f08c379a0000000000000000000000000000000000000000000000000000000008152600401610dc6906119ed565b60405180910390fd5b610dda8383836110ac565b6000600260008573ffffffffffffffffffffffffffffffffffffffff1673ffffffffffffffffffffffffffffffffffffffff16815260200190815260200160002054905081811015610e61576040517f08c379a0000000000000000000000000000000000000000000000000000000008152600401610e5890611a7f565b60405180910390fd5b818103600260008673ffffffffffffffffffffffffffffffffffffffff1673ffffffffffffffffffffffffffffffffffffffff1681526020019081526020016000208190555081600260008573ffffffffffffffffffffffffffffffffffffffff1673ffffffffffffffffffffffffffffffffffffffff168152602001908152602001600020600082825401925050819055508273ffffffffffffffffffffffffffffffffffffffff168473ffffffffffffffffffffffffffffffffffffffff167fddf252ad1be2c89b69c2b068fc378daa952ba7f163c4a11628f55a4df523b3ef84604051610f519190611286565b60405180910390a3610f648484846110b1565b50505050565b610f7261097a565b73ffffffffffffffffffffffffffffffffffffffff16610f9061060c565b73ffffffffffffffffffffffffffffffffffffffff1614610fe6576040517f08c379a0000000000000000000000000000000000000000000000000000000008152600401610fdd90611aeb565b60405180910390fd5b565b60008060009054906101000a900473ffffffffffffffffffffffffffffffffffffffff169050816000806101000a81548173ffffffffffffffffffffffffffffffffffffffff021916908373ffffffffffffffffffffffffffffffffffffffff1602179055508173ffffffffffffffffffffffffffffffffffffffff168173ffffffffffffffffffffffffffffffffffffffff167f8be0079c531659141344cd1fd0a4f28419497f9722a3daafe3b4186f6b6457e060405160405180910390a35050565b505050565b505050565b600081519050919050565b600082825260208201905092915050565b60005b838110156110f05780820151818401526020810190506110d5565b60008484015250505050565b6000601f19601f8301169050919050565b6000611118826110b6565b61112281856110c1565b93506111328185602086016110d2565b61113b816110fc565b840191505092915050565b60006020820190508181036000830152611160818461110d565b905092915050565b600080fd5b600073ffffffffffffffffffffffffffffffffffffffff82169050919050565b60006111988261116d565b9050919050565b6111a88161118d565b81146111b357600080fd5b50565b6000813590506111c58161119f565b92915050565b6000819050919050565b6111de816111cb565b81146111e957600080fd5b50565b6000813590506111fb816111d5565b92915050565b6000806040838503121561121857611217611168565b5b6000611226858286016111b6565b9250506020611237858286016111ec565b9150509250929050565b60008115159050919050565b61125681611241565b82525050565b6000602082019050611271600083018461124d565b92915050565b611280816111cb565b82525050565b600060208201905061129b6000830184611277565b92915050565b6000806000606084860312156112ba576112b9611168565b5b60006112c8868287016111b6565b93505060206112d9868287016111b6565b92505060406112ea868287016111ec565b9150509250925092565b600060ff82169050919050565b61130a816112f4565b82525050565b60006020820190506113256000830184611301565b92915050565b60006020828403121561134157611340611168565b5b600061134f848285016111b6565b91505092915050565b6113618161118d565b82525050565b600060208201905061137c6000830184611358565b92915050565b6000806040838503121561139957611398611168565b5b60006113a7858286016111b6565b92505060206113b8858286016111b6565b9150509250929050565b7f4e487b7100000000000000000000000000000000000000000000000000000000600052602260045260246000fd5b6000600282049050600182168061140957607f821691505b60208210810361141c5761141b6113c2565b5b50919050565b7f4e487b7100000000000000000000000000000000000000000000000000000000600052601160045260246000fd5b600061145c826111cb565b9150611467836111cb565b925082820190508082111561147f5761147e611422565b5b92915050565b7f4572726f723a205573657220616c72656164792077686974656c697374656400600082015250565b60006114bb601f836110c1565b91506114c682611485565b602082019050919050565b600060208201905081810360008301526114ea816114ae565b9050919050565b7f4572726f723a205573657220616c726561647920626c61636b6c697374656400600082015250565b6000611527601f836110c1565b9150611532826114f1565b602082019050919050565b600060208201905081810360008301526115568161151a565b9050919050565b7f42455032303a2064656372656173656420616c6c6f77616e63652062656c6f7760008201527f207a65726f000000000000000000000000000000000000000000000000000000602082015250565b60006115b96025836110c1565b91506115c48261155d565b604082019050919050565b600060208201905081810360008301526115e8816115ac565b9050919050565b7f4f776e61626c653a206e6577206f776e657220697320746865207a65726f206160008201527f6464726573730000000000000000000000000000000000000000000000000000602082015250565b600061164b6026836110c1565b9150611656826115ef565b604082019050919050565b6000602082019050818103600083015261167a8161163e565b9050919050565b7f42455032303a20617070726f76652066726f6d20746865207a65726f2061646460008201527f7265737300000000000000000000000000000000000000000000000000000000602082015250565b60006116dd6024836110c1565b91506116e882611681565b604082019050919050565b6000602082019050818103600083015261170c816116d0565b9050919050565b7f42455032303a20617070726f766520746f20746865207a65726f20616464726560008201527f7373000000000000000000000000000000000000000000000000000000000000602082015250565b600061176f6022836110c1565b915061177a82611713565b604082019050919050565b6000602082019050818103600083015261179e81611762565b9050919050565b7f42455032303a20696e73756666696369656e7420616c6c6f77616e6365000000600082015250565b60006117db601d836110c1565b91506117e6826117a5565b602082019050919050565b6000602082019050818103600083015261180a816117ce565b9050919050565b7f42455032303a207472616e736665722066726f6d20746865207a65726f20616460008201527f6472657373000000000000000000000000000000000000000000000000000000602082015250565b600061186d6025836110c1565b915061187882611811565b604082019050919050565b6000602082019050818103600083015261189c81611860565b9050919050565b7f42455032303a207472616e7366657220746f20746865207a65726f206164647260008201527f6573730000000000000000000000000000000000000000000000000000000000602082015250565b60006118ff6023836110c1565b915061190a826118a3565b604082019050919050565b6000602082019050818103600083015261192e816118f2565b9050919050565b7f4572726f723a2053656e64657220697320626c61636b6c697374656400000000600082015250565b600061196b601c836110c1565b915061197682611935565b602082019050919050565b6000602082019050818103600083015261199a8161195e565b9050919050565b7f4572726f723a20526563656976657220697320626c61636b6c69737465640000600082015250565b60006119d7601e836110c1565b91506119e2826119a1565b602082019050919050565b60006020820190508181036000830152611a06816119ca565b9050919050565b7f42455032303a207472616e7366657220616d6f756e742065786365656473206260008201527f616c616e63650000000000000000000000000000000000000000000000000000602082015250565b6000611a696026836110c1565b9150611a7482611a0d565b604082019050919050565b60006020820190508181036000830152611a9881611a5c565b9050919050565b7f4f776e61626c653a2063616c6c6572206973206e6f7420746865206f776e6572600082015250565b6000611ad56020836110c1565b9150611ae082611a9f565b602082019050919050565b60006020820190508181036000830152611b0481611ac8565b905091905056fea26469706673582212202f8bd0a57f7f5f5f309e88121fa327eec10dd6ffecfbf55ba0461dbb0d2c941564736f6c63430008110033",
  "linkReferences": {},
  "deployedLinkReferences": {}
}